{
    "_format": "hh-sol-artifact-1",
    "contractName": "SimplyToken",
    "sourceName": "contracts/SimpleNFT.sol",
    "abi": [
        {
            "inputs": [
                {
                    "internalType": "address",
                    "name": "initialOwner",
                    "type": "address"
                }
            ],
            "stateMutability": "nonpayable",
            "type": "constructor"
        },
        {
            "inputs": [
                {
                    "internalType": "address",
                    "name": "sender",
                    "type": "address"
                },
                {
                    "internalType": "uint256",
                    "name": "tokenId",
                    "type": "uint256"
                },
                {
                    "internalType": "address",
                    "name": "owner",
                    "type": "address"
                }
            ],
            "name": "ERC721IncorrectOwner",
            "type": "error"
        },
        {
            "inputs": [
                {
                    "internalType": "address",
                    "name": "operator",
                    "type": "address"
                },
                {
                    "internalType": "uint256",
                    "name": "tokenId",
                    "type": "uint256"
                }
            ],
            "name": "ERC721InsufficientApproval",
            "type": "error"
        },
        {
            "inputs": [
                {
                    "internalType": "address",
                    "name": "approver",
                    "type": "address"
                }
            ],
            "name": "ERC721InvalidApprover",
            "type": "error"
        },
        {
            "inputs": [
                {
                    "internalType": "address",
                    "name": "operator",
                    "type": "address"
                }
            ],
            "name": "ERC721InvalidOperator",
            "type": "error"
        },
        {
            "inputs": [
                {
                    "internalType": "address",
                    "name": "owner",
                    "type": "address"
                }
            ],
            "name": "ERC721InvalidOwner",
            "type": "error"
        },
        {
            "inputs": [
                {
                    "internalType": "address",
                    "name": "receiver",
                    "type": "address"
                }
            ],
            "name": "ERC721InvalidReceiver",
            "type": "error"
        },
        {
            "inputs": [
                {
                    "internalType": "address",
                    "name": "sender",
                    "type": "address"
                }
            ],
            "name": "ERC721InvalidSender",
            "type": "error"
        },
        {
            "inputs": [
                {
                    "internalType": "uint256",
                    "name": "tokenId",
                    "type": "uint256"
                }
            ],
            "name": "ERC721NonexistentToken",
            "type": "error"
        },
        {
            "inputs": [
                {
                    "internalType": "address",
                    "name": "owner",
                    "type": "address"
                }
            ],
            "name": "OwnableInvalidOwner",
            "type": "error"
        },
        {
            "inputs": [
                {
                    "internalType": "address",
                    "name": "account",
                    "type": "address"
                }
            ],
            "name": "OwnableUnauthorizedAccount",
            "type": "error"
        },
        {
            "anonymous": false,
            "inputs": [
                {
                    "indexed": true,
                    "internalType": "address",
                    "name": "owner",
                    "type": "address"
                },
                {
                    "indexed": true,
                    "internalType": "address",
                    "name": "approved",
                    "type": "address"
                },
                {
                    "indexed": true,
                    "internalType": "uint256",
                    "name": "tokenId",
                    "type": "uint256"
                }
            ],
            "name": "Approval",
            "type": "event"
        },
        {
            "anonymous": false,
            "inputs": [
                {
                    "indexed": true,
                    "internalType": "address",
                    "name": "owner",
                    "type": "address"
                },
                {
                    "indexed": true,
                    "internalType": "address",
                    "name": "operator",
                    "type": "address"
                },
                {
                    "indexed": false,
                    "internalType": "bool",
                    "name": "approved",
                    "type": "bool"
                }
            ],
            "name": "ApprovalForAll",
            "type": "event"
        },
        {
            "anonymous": false,
            "inputs": [
                {
                    "indexed": true,
                    "internalType": "address",
                    "name": "previousOwner",
                    "type": "address"
                },
                {
                    "indexed": true,
                    "internalType": "address",
                    "name": "newOwner",
                    "type": "address"
                }
            ],
            "name": "OwnershipTransferred",
            "type": "event"
        },
        {
            "anonymous": false,
            "inputs": [
                {
                    "indexed": true,
                    "internalType": "address",
                    "name": "from",
                    "type": "address"
                },
                {
                    "indexed": true,
                    "internalType": "address",
                    "name": "to",
                    "type": "address"
                },
                {
                    "indexed": true,
                    "internalType": "uint256",
                    "name": "tokenId",
                    "type": "uint256"
                }
            ],
            "name": "Transfer",
            "type": "event"
        },
        {
            "inputs": [
                {
                    "internalType": "address",
                    "name": "to",
                    "type": "address"
                },
                {
                    "internalType": "uint256",
                    "name": "tokenId",
                    "type": "uint256"
                }
            ],
            "name": "approve",
            "outputs": [],
            "stateMutability": "nonpayable",
            "type": "function"
        },
        {
            "inputs": [
                {
                    "internalType": "address",
                    "name": "owner",
                    "type": "address"
                }
            ],
            "name": "balanceOf",
            "outputs": [
                {
                    "internalType": "uint256",
                    "name": "",
                    "type": "uint256"
                }
            ],
            "stateMutability": "view",
            "type": "function"
        },
        {
            "inputs": [
                {
                    "internalType": "uint256",
                    "name": "tokenId",
                    "type": "uint256"
                }
            ],
            "name": "getApproved",
            "outputs": [
                {
                    "internalType": "address",
                    "name": "",
                    "type": "address"
                }
            ],
            "stateMutability": "view",
            "type": "function"
        },
        {
            "inputs": [
                {
                    "internalType": "address",
                    "name": "owner",
                    "type": "address"
                },
                {
                    "internalType": "address",
                    "name": "operator",
                    "type": "address"
                }
            ],
            "name": "isApprovedForAll",
            "outputs": [
                {
                    "internalType": "bool",
                    "name": "",
                    "type": "bool"
                }
            ],
            "stateMutability": "view",
            "type": "function"
        },
        {
            "inputs": [],
            "name": "isPublicMintEnadled",
            "outputs": [
                {
                    "internalType": "bool",
                    "name": "",
                    "type": "bool"
                }
            ],
            "stateMutability": "view",
            "type": "function"
        },
        {
            "inputs": [],
            "name": "maxPerWallet",
            "outputs": [
                {
                    "internalType": "uint256",
                    "name": "",
                    "type": "uint256"
                }
            ],
            "stateMutability": "view",
            "type": "function"
        },
        {
            "inputs": [],
            "name": "maxSupply",
            "outputs": [
                {
                    "internalType": "uint256",
                    "name": "",
                    "type": "uint256"
                }
            ],
            "stateMutability": "view",
            "type": "function"
        },
        {
            "inputs": [
                {
                    "internalType": "uint256",
                    "name": "_quantity",
                    "type": "uint256"
                }
            ],
            "name": "mint",
            "outputs": [],
            "stateMutability": "payable",
            "type": "function"
        },
        {
            "inputs": [],
            "name": "mintPrice",
            "outputs": [
                {
                    "internalType": "uint256",
                    "name": "",
                    "type": "uint256"
                }
            ],
            "stateMutability": "view",
            "type": "function"
        },
        {
            "inputs": [
                {
                    "internalType": "address",
                    "name": "",
                    "type": "address"
                }
            ],
            "name": "mintedWallets",
            "outputs": [
                {
                    "internalType": "uint256",
                    "name": "",
                    "type": "uint256"
                }
            ],
            "stateMutability": "view",
            "type": "function"
        },
        {
            "inputs": [],
            "name": "name",
            "outputs": [
                {
                    "internalType": "string",
                    "name": "",
                    "type": "string"
                }
            ],
            "stateMutability": "view",
            "type": "function"
        },
        {
            "inputs": [],
            "name": "owner",
            "outputs": [
                {
                    "internalType": "address",
                    "name": "",
                    "type": "address"
                }
            ],
            "stateMutability": "view",
            "type": "function"
        },
        {
            "inputs": [
                {
                    "internalType": "uint256",
                    "name": "tokenId",
                    "type": "uint256"
                }
            ],
            "name": "ownerOf",
            "outputs": [
                {
                    "internalType": "address",
                    "name": "",
                    "type": "address"
                }
            ],
            "stateMutability": "view",
            "type": "function"
        },
        {
            "inputs": [],
            "name": "renounceOwnership",
            "outputs": [],
            "stateMutability": "nonpayable",
            "type": "function"
        },
        {
            "inputs": [
                {
                    "internalType": "address",
                    "name": "from",
                    "type": "address"
                },
                {
                    "internalType": "address",
                    "name": "to",
                    "type": "address"
                },
                {
                    "internalType": "uint256",
                    "name": "tokenId",
                    "type": "uint256"
                }
            ],
            "name": "safeTransferFrom",
            "outputs": [],
            "stateMutability": "nonpayable",
            "type": "function"
        },
        {
            "inputs": [
                {
                    "internalType": "address",
                    "name": "from",
                    "type": "address"
                },
                {
                    "internalType": "address",
                    "name": "to",
                    "type": "address"
                },
                {
                    "internalType": "uint256",
                    "name": "tokenId",
                    "type": "uint256"
                },
                {
                    "internalType": "bytes",
                    "name": "data",
                    "type": "bytes"
                }
            ],
            "name": "safeTransferFrom",
            "outputs": [],
            "stateMutability": "nonpayable",
            "type": "function"
        },
        {
            "inputs": [
                {
                    "internalType": "address",
                    "name": "operator",
                    "type": "address"
                },
                {
                    "internalType": "bool",
                    "name": "approved",
                    "type": "bool"
                }
            ],
            "name": "setApprovalForAll",
            "outputs": [],
            "stateMutability": "nonpayable",
            "type": "function"
        },
        {
            "inputs": [
                {
                    "internalType": "string",
                    "name": "_baseTokenURI",
                    "type": "string"
                }
            ],
            "name": "setBaseTokenURI",
            "outputs": [],
            "stateMutability": "nonpayable",
            "type": "function"
        },
        {
            "inputs": [
                {
                    "internalType": "bool",
                    "name": "_isPublicMintEnadled",
                    "type": "bool"
                }
            ],
            "name": "setIsPublicMintEnadled",
            "outputs": [],
            "stateMutability": "nonpayable",
            "type": "function"
        },
        {
            "inputs": [
                {
                    "internalType": "bytes4",
                    "name": "interfaceId",
                    "type": "bytes4"
                }
            ],
            "name": "supportsInterface",
            "outputs": [
                {
                    "internalType": "bool",
                    "name": "",
                    "type": "bool"
                }
            ],
            "stateMutability": "view",
            "type": "function"
        },
        {
            "inputs": [],
            "name": "symbol",
            "outputs": [
                {
                    "internalType": "string",
                    "name": "",
                    "type": "string"
                }
            ],
            "stateMutability": "view",
            "type": "function"
        },
        {
            "inputs": [
                {
                    "internalType": "uint256",
                    "name": "_tokenId",
                    "type": "uint256"
                }
            ],
            "name": "tokenURI",
            "outputs": [
                {
                    "internalType": "string",
                    "name": "",
                    "type": "string"
                }
            ],
            "stateMutability": "view",
            "type": "function"
        },
        {
            "inputs": [],
            "name": "totalSupply",
            "outputs": [
                {
                    "internalType": "uint256",
                    "name": "",
                    "type": "uint256"
                }
            ],
            "stateMutability": "view",
            "type": "function"
        },
        {
            "inputs": [
                {
                    "internalType": "address",
                    "name": "from",
                    "type": "address"
                },
                {
                    "internalType": "address",
                    "name": "to",
                    "type": "address"
                },
                {
                    "internalType": "uint256",
                    "name": "tokenId",
                    "type": "uint256"
                }
            ],
            "name": "transferFrom",
            "outputs": [],
            "stateMutability": "nonpayable",
            "type": "function"
        },
        {
            "inputs": [
                {
                    "internalType": "address",
                    "name": "newOwner",
                    "type": "address"
                }
            ],
            "name": "transferOwnership",
            "outputs": [],
            "stateMutability": "nonpayable",
            "type": "function"
        },
        {
            "inputs": [],
            "name": "withdraw",
            "outputs": [],
            "stateMutability": "nonpayable",
            "type": "function"
        },
        {
            "inputs": [],
            "name": "withdrawWallet",
            "outputs": [
                {
                    "internalType": "address payable",
                    "name": "",
                    "type": "address"
                }
            ],
            "stateMutability": "view",
            "type": "function"
        }
    ],
    "bytecode": "0x60806040523480156200001157600080fd5b50604051620034c6380380620034c68339818101604052810190620000379190620002ae565b806040518060400160405280600781526020017f4d79546f6b656e000000000000000000000000000000000000000000000000008152506040518060400160405280600381526020017f4d544b00000000000000000000000000000000000000000000000000000000008152508160009081620000b591906200055a565b508060019081620000c791906200055a565b505050600073ffffffffffffffffffffffffffffffffffffffff168173ffffffffffffffffffffffffffffffffffffffff16036200013f5760006040517f1e4fbdf700000000000000000000000000000000000000000000000000000000815260040162000136919062000652565b60405180910390fd5b62000150816200017e60201b60201c565b5060006007819055506064600881905550662386f26fc100006009819055506003600c81905550506200066f565b6000600660009054906101000a900473ffffffffffffffffffffffffffffffffffffffff16905081600660006101000a81548173ffffffffffffffffffffffffffffffffffffffff021916908373ffffffffffffffffffffffffffffffffffffffff1602179055508173ffffffffffffffffffffffffffffffffffffffff168173ffffffffffffffffffffffffffffffffffffffff167f8be0079c531659141344cd1fd0a4f28419497f9722a3daafe3b4186f6b6457e060405160405180910390a35050565b600080fd5b600073ffffffffffffffffffffffffffffffffffffffff82169050919050565b6000620002768262000249565b9050919050565b620002888162000269565b81146200029457600080fd5b50565b600081519050620002a8816200027d565b92915050565b600060208284031215620002c757620002c662000244565b5b6000620002d78482850162000297565b91505092915050565b600081519050919050565b7f4e487b7100000000000000000000000000000000000000000000000000000000600052604160045260246000fd5b7f4e487b7100000000000000000000000000000000000000000000000000000000600052602260045260246000fd5b600060028204905060018216806200036257607f821691505b6020821081036200037857620003776200031a565b5b50919050565b60008190508160005260206000209050919050565b60006020601f8301049050919050565b600082821b905092915050565b600060088302620003e27fffffffffffffffffffffffffffffffffffffffffffffffffffffffffffffffff82620003a3565b620003ee8683620003a3565b95508019841693508086168417925050509392505050565b6000819050919050565b6000819050919050565b60006200043b620004356200042f8462000406565b62000410565b62000406565b9050919050565b6000819050919050565b62000457836200041a565b6200046f620004668262000442565b848454620003b0565b825550505050565b600090565b6200048662000477565b620004938184846200044c565b505050565b5b81811015620004bb57620004af6000826200047c565b60018101905062000499565b5050565b601f8211156200050a57620004d4816200037e565b620004df8462000393565b81016020851015620004ef578190505b62000507620004fe8562000393565b83018262000498565b50505b505050565b600082821c905092915050565b60006200052f600019846008026200050f565b1980831691505092915050565b60006200054a83836200051c565b9150826002028217905092915050565b6200056582620002e0565b67ffffffffffffffff811115620005815762000580620002eb565b5b6200058d825462000349565b6200059a828285620004bf565b600060209050601f831160018114620005d25760008415620005bd578287015190505b620005c985826200053c565b86555062000639565b601f198416620005e2866200037e565b60005b828110156200060c57848901518255600182019150602085019450602081019050620005e5565b868310156200062c578489015162000628601f8916826200051c565b8355505b6001600288020188555050505b505050505050565b6200064c8162000269565b82525050565b600060208201905062000669600083018462000641565b92915050565b612e47806200067f6000396000f3fe60806040526004361061019c5760003560e01c80636f138e94116100ec578063a22cb4651161008a578063c87b56dd11610064578063c87b56dd14610593578063d5abeb01146105d0578063e985e9c5146105fb578063f2fde38b146106385761019c565b8063a22cb46514610504578063ada7c4ed1461052d578063b88d4fde1461056a5761019c565b806385d178f4116100c657806385d178f4146104675780638da5cb5b1461049257806395d89b41146104bd578063a0712d68146104e85761019c565b80636f138e94146103ea57806370a0823114610413578063715018a6146104505761019c565b8063293141c41161015957806342842e0e1161013357806342842e0e1461032e578063453c2310146103575780636352211e146103825780636817c76c146103bf5761019c565b8063293141c4146102c357806330176e13146102ee5780633ccfd60b146103175761019c565b806301ffc9a7146101a157806306fdde03146101de578063081812fc14610209578063095ea7b31461024657806318160ddd1461026f57806323b872dd1461029a575b600080fd5b3480156101ad57600080fd5b506101c860048036038101906101c39190611ecb565b610661565b6040516101d59190611f13565b60405180910390f35b3480156101ea57600080fd5b506101f3610743565b6040516102009190611fbe565b60405180910390f35b34801561021557600080fd5b50610230600480360381019061022b9190612016565b6107d5565b60405161023d9190612084565b60405180910390f35b34801561025257600080fd5b5061026d600480360381019061026891906120cb565b6107f1565b005b34801561027b57600080fd5b50610284610807565b604051610291919061211a565b60405180910390f35b3480156102a657600080fd5b506102c160048036038101906102bc9190612135565b61080d565b005b3480156102cf57600080fd5b506102d861090f565b6040516102e59190611f13565b60405180910390f35b3480156102fa57600080fd5b50610315600480360381019061031091906121ed565b610922565b005b34801561032357600080fd5b5061032c610940565b005b34801561033a57600080fd5b5061035560048036038101906103509190612135565b610a19565b005b34801561036357600080fd5b5061036c610a39565b604051610379919061211a565b60405180910390f35b34801561038e57600080fd5b506103a960048036038101906103a49190612016565b610a3f565b6040516103b69190612084565b60405180910390f35b3480156103cb57600080fd5b506103d4610a51565b6040516103e1919061211a565b60405180910390f35b3480156103f657600080fd5b50610411600480360381019061040c9190612266565b610a57565b005b34801561041f57600080fd5b5061043a60048036038101906104359190612293565b610a7c565b604051610447919061211a565b60405180910390f35b34801561045c57600080fd5b50610465610b36565b005b34801561047357600080fd5b5061047c610b4a565b60405161048991906122e1565b60405180910390f35b34801561049e57600080fd5b506104a7610b70565b6040516104b49190612084565b60405180910390f35b3480156104c957600080fd5b506104d2610b9a565b6040516104df9190611fbe565b60405180910390f35b61050260048036038101906104fd9190612016565b610c2c565b005b34801561051057600080fd5b5061052b600480360381019061052691906122fc565b610e05565b005b34801561053957600080fd5b50610554600480360381019061054f9190612293565b610e1b565b604051610561919061211a565b60405180910390f35b34801561057657600080fd5b50610591600480360381019061058c919061246c565b610e33565b005b34801561059f57600080fd5b506105ba60048036038101906105b59190612016565b610e50565b6040516105c79190611fbe565b60405180910390f35b3480156105dc57600080fd5b506105e5610e8e565b6040516105f2919061211a565b60405180910390f35b34801561060757600080fd5b50610622600480360381019061061d91906124ef565b610e94565b60405161062f9190611f13565b60405180910390f35b34801561064457600080fd5b5061065f600480360381019061065a9190612293565b610f28565b005b60007f80ac58cd000000000000000000000000000000000000000000000000000000007bffffffffffffffffffffffffffffffffffffffffffffffffffffffff1916827bffffffffffffffffffffffffffffffffffffffffffffffffffffffff1916148061072c57507f5b5e139f000000000000000000000000000000000000000000000000000000007bffffffffffffffffffffffffffffffffffffffffffffffffffffffff1916827bffffffffffffffffffffffffffffffffffffffffffffffffffffffff1916145b8061073c575061073b82610fae565b5b9050919050565b6060600080546107529061255e565b80601f016020809104026020016040519081016040528092919081815260200182805461077e9061255e565b80156107cb5780601f106107a0576101008083540402835291602001916107cb565b820191906000526020600020905b8154815290600101906020018083116107ae57829003601f168201915b5050505050905090565b60006107e082611018565b506107ea826110a0565b9050919050565b61080382826107fe6110dd565b6110e5565b5050565b60075481565b600073ffffffffffffffffffffffffffffffffffffffff168273ffffffffffffffffffffffffffffffffffffffff160361087f5760006040517f64a0ae920000000000000000000000000000000000000000000000000000000081526004016108769190612084565b60405180910390fd5b6000610893838361088e6110dd565b6110f7565b90508373ffffffffffffffffffffffffffffffffffffffff168173ffffffffffffffffffffffffffffffffffffffff1614610909578382826040517f64283d7b0000000000000000000000000000000000000000000000000000000081526004016109009392919061258f565b60405180910390fd5b50505050565b600a60009054906101000a900460ff1681565b61092a611311565b8181600b918261093b92919061277d565b505050565b610948611311565b6000600d60009054906101000a900473ffffffffffffffffffffffffffffffffffffffff1673ffffffffffffffffffffffffffffffffffffffff16476040516109909061287e565b60006040518083038185875af1925050503d80600081146109cd576040519150601f19603f3d011682016040523d82523d6000602084013e6109d2565b606091505b5050905080610a16576040517f08c379a0000000000000000000000000000000000000000000000000000000008152600401610a0d906128df565b60405180910390fd5b50565b610a3483838360405180602001604052806000815250610e33565b505050565b600c5481565b6000610a4a82611018565b9050919050565b60095481565b610a5f611311565b80600a60006101000a81548160ff02191690831515021790555050565b60008073ffffffffffffffffffffffffffffffffffffffff168273ffffffffffffffffffffffffffffffffffffffff1603610aef5760006040517f89c62b64000000000000000000000000000000000000000000000000000000008152600401610ae69190612084565b60405180910390fd5b600360008373ffffffffffffffffffffffffffffffffffffffff1673ffffffffffffffffffffffffffffffffffffffff168152602001908152602001600020549050919050565b610b3e611311565b610b486000611398565b565b600d60009054906101000a900473ffffffffffffffffffffffffffffffffffffffff1681565b6000600660009054906101000a900473ffffffffffffffffffffffffffffffffffffffff16905090565b606060018054610ba99061255e565b80601f0160208091040260200160405190810160405280929190818152602001828054610bd59061255e565b8015610c225780601f10610bf757610100808354040283529160200191610c22565b820191906000526020600020905b815481529060010190602001808311610c0557829003601f168201915b5050505050905090565b610c34611311565b600a60009054906101000a900460ff16610c83576040517f08c379a0000000000000000000000000000000000000000000000000000000008152600401610c7a9061294b565b60405180910390fd5b60095481610c91919061299a565b3414610cd2576040517f08c379a0000000000000000000000000000000000000000000000000000000008152600401610cc990612a28565b60405180910390fd5b60085481600754610ce39190612a48565b1115610d24576040517f08c379a0000000000000000000000000000000000000000000000000000000008152600401610d1b90612ac8565b60405180910390fd5b600c5481600e60003373ffffffffffffffffffffffffffffffffffffffff1673ffffffffffffffffffffffffffffffffffffffff16815260200190815260200160002054610d729190612a48565b1115610db3576040517f08c379a0000000000000000000000000000000000000000000000000000000008152600401610daa90612b34565b60405180910390fd5b60005b81811015610e015760006001600754610dcf9190612a48565b905060076000815480929190610de490612b54565b9190505550610df3338261145e565b508080600101915050610db6565b5050565b610e17610e106110dd565b838361147c565b5050565b600e6020528060005260406000206000915090505481565b610e3e84848461080d565b610e4a848484846115eb565b50505050565b6060610e5b82611018565b50600b610e67836117a2565b604051602001610e78929190612ca7565b6040516020818303038152906040529050919050565b60085481565b6000600560008473ffffffffffffffffffffffffffffffffffffffff1673ffffffffffffffffffffffffffffffffffffffff16815260200190815260200160002060008373ffffffffffffffffffffffffffffffffffffffff1673ffffffffffffffffffffffffffffffffffffffff16815260200190815260200160002060009054906101000a900460ff16905092915050565b610f30611311565b600073ffffffffffffffffffffffffffffffffffffffff168173ffffffffffffffffffffffffffffffffffffffff1603610fa25760006040517f1e4fbdf7000000000000000000000000000000000000000000000000000000008152600401610f999190612084565b60405180910390fd5b610fab81611398565b50565b60007f01ffc9a7000000000000000000000000000000000000000000000000000000007bffffffffffffffffffffffffffffffffffffffffffffffffffffffff1916827bffffffffffffffffffffffffffffffffffffffffffffffffffffffff1916149050919050565b60008061102483611870565b9050600073ffffffffffffffffffffffffffffffffffffffff168173ffffffffffffffffffffffffffffffffffffffff160361109757826040517f7e27328900000000000000000000000000000000000000000000000000000000815260040161108e919061211a565b60405180910390fd5b80915050919050565b60006004600083815260200190815260200160002060009054906101000a900473ffffffffffffffffffffffffffffffffffffffff169050919050565b600033905090565b6110f283838360016118ad565b505050565b60008061110384611870565b9050600073ffffffffffffffffffffffffffffffffffffffff168373ffffffffffffffffffffffffffffffffffffffff161461114557611144818486611a72565b5b600073ffffffffffffffffffffffffffffffffffffffff168173ffffffffffffffffffffffffffffffffffffffff16146111d6576111876000856000806118ad565b6001600360008373ffffffffffffffffffffffffffffffffffffffff1673ffffffffffffffffffffffffffffffffffffffff168152602001908152602001600020600082825403925050819055505b600073ffffffffffffffffffffffffffffffffffffffff168573ffffffffffffffffffffffffffffffffffffffff1614611259576001600360008773ffffffffffffffffffffffffffffffffffffffff1673ffffffffffffffffffffffffffffffffffffffff168152602001908152602001600020600082825401925050819055505b846002600086815260200190815260200160002060006101000a81548173ffffffffffffffffffffffffffffffffffffffff021916908373ffffffffffffffffffffffffffffffffffffffff160217905550838573ffffffffffffffffffffffffffffffffffffffff168273ffffffffffffffffffffffffffffffffffffffff167fddf252ad1be2c89b69c2b068fc378daa952ba7f163c4a11628f55a4df523b3ef60405160405180910390a4809150509392505050565b6113196110dd565b73ffffffffffffffffffffffffffffffffffffffff16611337610b70565b73ffffffffffffffffffffffffffffffffffffffff16146113965761135a6110dd565b6040517f118cdaa700000000000000000000000000000000000000000000000000000000815260040161138d9190612084565b60405180910390fd5b565b6000600660009054906101000a900473ffffffffffffffffffffffffffffffffffffffff16905081600660006101000a81548173ffffffffffffffffffffffffffffffffffffffff021916908373ffffffffffffffffffffffffffffffffffffffff1602179055508173ffffffffffffffffffffffffffffffffffffffff168173ffffffffffffffffffffffffffffffffffffffff167f8be0079c531659141344cd1fd0a4f28419497f9722a3daafe3b4186f6b6457e060405160405180910390a35050565b611478828260405180602001604052806000815250611b36565b5050565b600073ffffffffffffffffffffffffffffffffffffffff168273ffffffffffffffffffffffffffffffffffffffff16036114ed57816040517f5b08ba180000000000000000000000000000000000000000000000000000000081526004016114e49190612084565b60405180910390fd5b80600560008573ffffffffffffffffffffffffffffffffffffffff1673ffffffffffffffffffffffffffffffffffffffff16815260200190815260200160002060008473ffffffffffffffffffffffffffffffffffffffff1673ffffffffffffffffffffffffffffffffffffffff16815260200190815260200160002060006101000a81548160ff0219169083151502179055508173ffffffffffffffffffffffffffffffffffffffff168373ffffffffffffffffffffffffffffffffffffffff167f17307eab39ab6107e8899845ad3d59bd9653f200f220920489ca2b5937696c31836040516115de9190611f13565b60405180910390a3505050565b60008373ffffffffffffffffffffffffffffffffffffffff163b111561179c578273ffffffffffffffffffffffffffffffffffffffff1663150b7a0261162f6110dd565b8685856040518563ffffffff1660e01b81526004016116519493929190612d2b565b6020604051808303816000875af192505050801561168d57506040513d601f19601f8201168201806040525081019061168a9190612d8c565b60015b611711573d80600081146116bd576040519150601f19603f3d011682016040523d82523d6000602084013e6116c2565b606091505b50600081510361170957836040517f64a0ae920000000000000000000000000000000000000000000000000000000081526004016117009190612084565b60405180910390fd5b805181602001fd5b63150b7a0260e01b7bffffffffffffffffffffffffffffffffffffffffffffffffffffffff1916817bffffffffffffffffffffffffffffffffffffffffffffffffffffffff19161461179a57836040517f64a0ae920000000000000000000000000000000000000000000000000000000081526004016117919190612084565b60405180910390fd5b505b50505050565b6060600060016117b184611b52565b01905060008167ffffffffffffffff8111156117d0576117cf612341565b5b6040519080825280601f01601f1916602001820160405280156118025781602001600182028036833780820191505090505b509050600082602001820190505b600115611865578080600190039150507f3031323334353637383961626364656600000000000000000000000000000000600a86061a8153600a858161185957611858612db9565b5b04945060008503611810575b819350505050919050565b60006002600083815260200190815260200160002060009054906101000a900473ffffffffffffffffffffffffffffffffffffffff169050919050565b80806118e65750600073ffffffffffffffffffffffffffffffffffffffff168273ffffffffffffffffffffffffffffffffffffffff1614155b15611a1a5760006118f684611018565b9050600073ffffffffffffffffffffffffffffffffffffffff168373ffffffffffffffffffffffffffffffffffffffff161415801561196157508273ffffffffffffffffffffffffffffffffffffffff168173ffffffffffffffffffffffffffffffffffffffff1614155b801561197457506119728184610e94565b155b156119b657826040517fa9fbf51f0000000000000000000000000000000000000000000000000000000081526004016119ad9190612084565b60405180910390fd5b8115611a1857838573ffffffffffffffffffffffffffffffffffffffff168273ffffffffffffffffffffffffffffffffffffffff167f8c5be1e5ebec7d5bd14f71427d1e84f3dd0314c0f7b2291e5b200ac8c7c3b92560405160405180910390a45b505b836004600085815260200190815260200160002060006101000a81548173ffffffffffffffffffffffffffffffffffffffff021916908373ffffffffffffffffffffffffffffffffffffffff16021790555050505050565b611a7d838383611ca5565b611b3157600073ffffffffffffffffffffffffffffffffffffffff168373ffffffffffffffffffffffffffffffffffffffff1603611af257806040517f7e273289000000000000000000000000000000000000000000000000000000008152600401611ae9919061211a565b60405180910390fd5b81816040517f177e802f000000000000000000000000000000000000000000000000000000008152600401611b28929190612de8565b60405180910390fd5b505050565b611b408383611d66565b611b4d60008484846115eb565b505050565b600080600090507a184f03e93ff9f4daa797ed6e38ed64bf6a1f0100000000000000008310611bb0577a184f03e93ff9f4daa797ed6e38ed64bf6a1f0100000000000000008381611ba657611ba5612db9565b5b0492506040810190505b6d04ee2d6d415b85acef81000000008310611bed576d04ee2d6d415b85acef81000000008381611be357611be2612db9565b5b0492506020810190505b662386f26fc100008310611c1c57662386f26fc100008381611c1257611c11612db9565b5b0492506010810190505b6305f5e1008310611c45576305f5e1008381611c3b57611c3a612db9565b5b0492506008810190505b6127108310611c6a576127108381611c6057611c5f612db9565b5b0492506004810190505b60648310611c8d5760648381611c8357611c82612db9565b5b0492506002810190505b600a8310611c9c576001810190505b80915050919050565b60008073ffffffffffffffffffffffffffffffffffffffff168373ffffffffffffffffffffffffffffffffffffffff1614158015611d5d57508273ffffffffffffffffffffffffffffffffffffffff168473ffffffffffffffffffffffffffffffffffffffff161480611d1e5750611d1d8484610e94565b5b80611d5c57508273ffffffffffffffffffffffffffffffffffffffff16611d44836110a0565b73ffffffffffffffffffffffffffffffffffffffff16145b5b90509392505050565b600073ffffffffffffffffffffffffffffffffffffffff168273ffffffffffffffffffffffffffffffffffffffff1603611dd85760006040517f64a0ae92000000000000000000000000000000000000000000000000000000008152600401611dcf9190612084565b60405180910390fd5b6000611de6838360006110f7565b9050600073ffffffffffffffffffffffffffffffffffffffff168173ffffffffffffffffffffffffffffffffffffffff1614611e5a5760006040517f73c6ac6e000000000000000000000000000000000000000000000000000000008152600401611e519190612084565b60405180910390fd5b505050565b6000604051905090565b600080fd5b600080fd5b60007fffffffff0000000000000000000000000000000000000000000000000000000082169050919050565b611ea881611e73565b8114611eb357600080fd5b50565b600081359050611ec581611e9f565b92915050565b600060208284031215611ee157611ee0611e69565b5b6000611eef84828501611eb6565b91505092915050565b60008115159050919050565b611f0d81611ef8565b82525050565b6000602082019050611f286000830184611f04565b92915050565b600081519050919050565b600082825260208201905092915050565b60005b83811015611f68578082015181840152602081019050611f4d565b60008484015250505050565b6000601f19601f8301169050919050565b6000611f9082611f2e565b611f9a8185611f39565b9350611faa818560208601611f4a565b611fb381611f74565b840191505092915050565b60006020820190508181036000830152611fd88184611f85565b905092915050565b6000819050919050565b611ff381611fe0565b8114611ffe57600080fd5b50565b60008135905061201081611fea565b92915050565b60006020828403121561202c5761202b611e69565b5b600061203a84828501612001565b91505092915050565b600073ffffffffffffffffffffffffffffffffffffffff82169050919050565b600061206e82612043565b9050919050565b61207e81612063565b82525050565b60006020820190506120996000830184612075565b92915050565b6120a881612063565b81146120b357600080fd5b50565b6000813590506120c58161209f565b92915050565b600080604083850312156120e2576120e1611e69565b5b60006120f0858286016120b6565b925050602061210185828601612001565b9150509250929050565b61211481611fe0565b82525050565b600060208201905061212f600083018461210b565b92915050565b60008060006060848603121561214e5761214d611e69565b5b600061215c868287016120b6565b935050602061216d868287016120b6565b925050604061217e86828701612001565b9150509250925092565b600080fd5b600080fd5b600080fd5b60008083601f8401126121ad576121ac612188565b5b8235905067ffffffffffffffff8111156121ca576121c961218d565b5b6020830191508360018202830111156121e6576121e5612192565b5b9250929050565b6000806020838503121561220457612203611e69565b5b600083013567ffffffffffffffff81111561222257612221611e6e565b5b61222e85828601612197565b92509250509250929050565b61224381611ef8565b811461224e57600080fd5b50565b6000813590506122608161223a565b92915050565b60006020828403121561227c5761227b611e69565b5b600061228a84828501612251565b91505092915050565b6000602082840312156122a9576122a8611e69565b5b60006122b7848285016120b6565b91505092915050565b60006122cb82612043565b9050919050565b6122db816122c0565b82525050565b60006020820190506122f660008301846122d2565b92915050565b6000806040838503121561231357612312611e69565b5b6000612321858286016120b6565b925050602061233285828601612251565b9150509250929050565b600080fd5b7f4e487b7100000000000000000000000000000000000000000000000000000000600052604160045260246000fd5b61237982611f74565b810181811067ffffffffffffffff8211171561239857612397612341565b5b80604052505050565b60006123ab611e5f565b90506123b78282612370565b919050565b600067ffffffffffffffff8211156123d7576123d6612341565b5b6123e082611f74565b9050602081019050919050565b82818337600083830152505050565b600061240f61240a846123bc565b6123a1565b90508281526020810184848401111561242b5761242a61233c565b5b6124368482856123ed565b509392505050565b600082601f83011261245357612452612188565b5b81356124638482602086016123fc565b91505092915050565b6000806000806080858703121561248657612485611e69565b5b6000612494878288016120b6565b94505060206124a5878288016120b6565b93505060406124b687828801612001565b925050606085013567ffffffffffffffff8111156124d7576124d6611e6e565b5b6124e38782880161243e565b91505092959194509250565b6000806040838503121561250657612505611e69565b5b6000612514858286016120b6565b9250506020612525858286016120b6565b9150509250929050565b7f4e487b7100000000000000000000000000000000000000000000000000000000600052602260045260246000fd5b6000600282049050600182168061257657607f821691505b6020821081036125895761258861252f565b5b50919050565b60006060820190506125a46000830186612075565b6125b1602083018561210b565b6125be6040830184612075565b949350505050565b600082905092915050565b60008190508160005260206000209050919050565b60006020601f8301049050919050565b600082821b905092915050565b6000600883026126337fffffffffffffffffffffffffffffffffffffffffffffffffffffffffffffffff826125f6565b61263d86836125f6565b95508019841693508086168417925050509392505050565b6000819050919050565b600061267a61267561267084611fe0565b612655565b611fe0565b9050919050565b6000819050919050565b6126948361265f565b6126a86126a082612681565b848454612603565b825550505050565b600090565b6126bd6126b0565b6126c881848461268b565b505050565b5b818110156126ec576126e16000826126b5565b6001810190506126ce565b5050565b601f82111561273157612702816125d1565b61270b846125e6565b8101602085101561271a578190505b61272e612726856125e6565b8301826126cd565b50505b505050565b600082821c905092915050565b600061275460001984600802612736565b1980831691505092915050565b600061276d8383612743565b9150826002028217905092915050565b61278783836125c6565b67ffffffffffffffff8111156127a05761279f612341565b5b6127aa825461255e565b6127b58282856126f0565b6000601f8311600181146127e457600084156127d2578287013590505b6127dc8582612761565b865550612844565b601f1984166127f2866125d1565b60005b8281101561281a578489013582556001820191506020850194506020810190506127f5565b868310156128375784890135612833601f891682612743565b8355505b6001600288020188555050505b50505050505050565b600081905092915050565b50565b600061286860008361284d565b915061287382612858565b600082019050919050565b60006128898261285b565b9150819050919050565b7f7769746864726177206661696c65640000000000000000000000000000000000600082015250565b60006128c9600f83611f39565b91506128d482612893565b602082019050919050565b600060208201905081810360008301526128f8816128bc565b9050919050565b7f6d696e74206e6f7420656e61626c656420000000000000000000000000000000600082015250565b6000612935601183611f39565b9150612940826128ff565b602082019050919050565b6000602082019050818103600083015261296481612928565b9050919050565b7f4e487b7100000000000000000000000000000000000000000000000000000000600052601160045260246000fd5b60006129a582611fe0565b91506129b083611fe0565b92508282026129be81611fe0565b915082820484148315176129d5576129d461296b565b5b5092915050565b7f77726f6e67206d696e742076616c756500000000000000000000000000000000600082015250565b6000612a12601083611f39565b9150612a1d826129dc565b602082019050919050565b60006020820190508181036000830152612a4181612a05565b9050919050565b6000612a5382611fe0565b9150612a5e83611fe0565b9250828201905080821115612a7657612a7561296b565b5b92915050565b7f736f6c64206f7574000000000000000000000000000000000000000000000000600082015250565b6000612ab2600883611f39565b9150612abd82612a7c565b602082019050919050565b60006020820190508181036000830152612ae181612aa5565b9050919050565b7f657863656564206d61782077616c6c6574000000000000000000000000000000600082015250565b6000612b1e601183611f39565b9150612b2982612ae8565b602082019050919050565b60006020820190508181036000830152612b4d81612b11565b9050919050565b6000612b5f82611fe0565b91507fffffffffffffffffffffffffffffffffffffffffffffffffffffffffffffffff8203612b9157612b9061296b565b5b600182019050919050565b600081905092915050565b60008154612bb48161255e565b612bbe8186612b9c565b94506001821660008114612bd95760018114612bee57612c21565b60ff1983168652811515820286019350612c21565b612bf7856125d1565b60005b83811015612c1957815481890152600182019150602081019050612bfa565b838801955050505b50505092915050565b6000612c3582611f2e565b612c3f8185612b9c565b9350612c4f818560208601611f4a565b80840191505092915050565b7f2e6a736f6e000000000000000000000000000000000000000000000000000000600082015250565b6000612c91600583612b9c565b9150612c9c82612c5b565b600582019050919050565b6000612cb38285612ba7565b9150612cbf8284612c2a565b9150612cca82612c84565b91508190509392505050565b600081519050919050565b600082825260208201905092915050565b6000612cfd82612cd6565b612d078185612ce1565b9350612d17818560208601611f4a565b612d2081611f74565b840191505092915050565b6000608082019050612d406000830187612075565b612d4d6020830186612075565b612d5a604083018561210b565b8181036060830152612d6c8184612cf2565b905095945050505050565b600081519050612d8681611e9f565b92915050565b600060208284031215612da257612da1611e69565b5b6000612db084828501612d77565b91505092915050565b7f4e487b7100000000000000000000000000000000000000000000000000000000600052601260045260246000fd5b6000604082019050612dfd6000830185612075565b612e0a602083018461210b565b939250505056fea264697066735822122095a486f7f57da4d54aaef3f7ba0ea84be590b4beafb555ee9836ac7d83a8bc7664736f6c63430008180033",
    "linkReferences": {},
    "deployedLinkReferences": {}
}